{
  "_format": "hh-sol-artifact-1",
  "contractName": "HackathonRegistry",
  "sourceName": "contracts/HackathonRegistry.sol",
  "abi": [
    {
      "inputs": [],
      "stateMutability": "nonpayable",
      "type": "constructor"
    },
    {
      "anonymous": false,
      "inputs": [
        {
          "indexed": true,
          "internalType": "address",
          "name": "user",
          "type": "address"
        },
        {
          "indexed": false,
          "internalType": "uint256",
          "name": "auraAmount",
          "type": "uint256"
        },
        {
          "indexed": false,
          "internalType": "string",
          "name": "hackathonName",
          "type": "string"
        },
        {
          "indexed": false,
          "internalType": "string",
          "name": "reason",
          "type": "string"
        },
        {
          "indexed": false,
          "internalType": "address",
          "name": "awardedBy",
          "type": "address"
        }
      ],
      "name": "AuraCoinAwarded",
      "type": "event"
    },
    {
      "anonymous": false,
      "inputs": [
        {
          "indexed": true,
          "internalType": "address",
          "name": "user",
          "type": "address"
        },
        {
          "indexed": false,
          "internalType": "uint256",
          "name": "auraAmount",
          "type": "uint256"
        },
        {
          "indexed": false,
          "internalType": "uint256",
          "name": "ethAmount",
          "type": "uint256"
        }
      ],
      "name": "AuraCoinRedeemed",
      "type": "event"
    },
    {
      "anonymous": false,
      "inputs": [
        {
          "indexed": true,
          "internalType": "address",
          "name": "host",
          "type": "address"
        }
      ],
      "name": "HackathonHostAdded",
      "type": "event"
    },
    {
      "anonymous": false,
      "inputs": [
        {
          "indexed": true,
          "internalType": "address",
          "name": "participant",
          "type": "address"
        },
        {
          "indexed": false,
          "internalType": "string",
          "name": "name",
          "type": "string"
        },
        {
          "indexed": false,
          "internalType": "string",
          "name": "teamName",
          "type": "string"
        }
      ],
      "name": "ParticipantRegistered",
      "type": "event"
    },
    {
      "inputs": [],
      "name": "AURA_TO_ETH_RATE",
      "outputs": [
        {
          "internalType": "uint256",
          "name": "",
          "type": "uint256"
        }
      ],
      "stateMutability": "view",
      "type": "function"
    },
    {
      "inputs": [
        {
          "internalType": "address",
          "name": "_host",
          "type": "address"
        }
      ],
      "name": "addHackathonHost",
      "outputs": [],
      "stateMutability": "nonpayable",
      "type": "function"
    },
    {
      "inputs": [
        {
          "internalType": "uint256",
          "name": "",
          "type": "uint256"
        }
      ],
      "name": "allAuraTransactions",
      "outputs": [
        {
          "internalType": "address",
          "name": "user",
          "type": "address"
        },
        {
          "internalType": "uint256",
          "name": "auraAmount",
          "type": "uint256"
        },
        {
          "internalType": "uint256",
          "name": "ethAmount",
          "type": "uint256"
        },
        {
          "internalType": "string",
          "name": "transactionType",
          "type": "string"
        },
        {
          "internalType": "string",
          "name": "hackathonName",
          "type": "string"
        },
        {
          "internalType": "string",
          "name": "reason",
          "type": "string"
        },
        {
          "internalType": "uint256",
          "name": "timestamp",
          "type": "uint256"
        },
        {
          "internalType": "bytes32",
          "name": "txHash",
          "type": "bytes32"
        },
        {
          "internalType": "address",
          "name": "awardedBy",
          "type": "address"
        }
      ],
      "stateMutability": "view",
      "type": "function"
    },
    {
      "inputs": [
        {
          "internalType": "address",
          "name": "",
          "type": "address"
        }
      ],
      "name": "auraCoinBalances",
      "outputs": [
        {
          "internalType": "uint256",
          "name": "balance",
          "type": "uint256"
        },
        {
          "internalType": "uint256",
          "name": "totalEarned",
          "type": "uint256"
        },
        {
          "internalType": "uint256",
          "name": "totalRedeemed",
          "type": "uint256"
        }
      ],
      "stateMutability": "view",
      "type": "function"
    },
    {
      "inputs": [
        {
          "internalType": "address",
          "name": "_participant",
          "type": "address"
        },
        {
          "internalType": "uint256",
          "name": "_auraAmount",
          "type": "uint256"
        },
        {
          "internalType": "string",
          "name": "_hackathonName",
          "type": "string"
        },
        {
          "internalType": "string",
          "name": "_reason",
          "type": "string"
        }
      ],
      "name": "awardAuraCoin",
      "outputs": [],
      "stateMutability": "nonpayable",
      "type": "function"
    },
    {
      "inputs": [],
      "name": "fundContract",
      "outputs": [],
      "stateMutability": "payable",
      "type": "function"
    },
    {
      "inputs": [],
      "name": "getAllAuraTransactions",
      "outputs": [
        {
          "components": [
            {
              "internalType": "address",
              "name": "user",
              "type": "address"
            },
            {
              "internalType": "uint256",
              "name": "auraAmount",
              "type": "uint256"
            },
            {
              "internalType": "uint256",
              "name": "ethAmount",
              "type": "uint256"
            },
            {
              "internalType": "string",
              "name": "transactionType",
              "type": "string"
            },
            {
              "internalType": "string",
              "name": "hackathonName",
              "type": "string"
            },
            {
              "internalType": "string",
              "name": "reason",
              "type": "string"
            },
            {
              "internalType": "uint256",
              "name": "timestamp",
              "type": "uint256"
            },
            {
              "internalType": "bytes32",
              "name": "txHash",
              "type": "bytes32"
            },
            {
              "internalType": "address",
              "name": "awardedBy",
              "type": "address"
            }
          ],
          "internalType": "struct HackathonRegistry.AuraTransaction[]",
          "name": "",
          "type": "tuple[]"
        }
      ],
      "stateMutability": "view",
      "type": "function"
    },
    {
      "inputs": [
        {
          "internalType": "address",
          "name": "_user",
          "type": "address"
        }
      ],
      "name": "getAuraCoinBalance",
      "outputs": [
        {
          "internalType": "uint256",
          "name": "balance",
          "type": "uint256"
        },
        {
          "internalType": "uint256",
          "name": "totalEarned",
          "type": "uint256"
        },
        {
          "internalType": "uint256",
          "name": "totalRedeemed",
          "type": "uint256"
        }
      ],
      "stateMutability": "view",
      "type": "function"
    },
    {
      "inputs": [
        {
          "internalType": "address",
          "name": "_user",
          "type": "address"
        }
      ],
      "name": "getAuraRedemptionHistory",
      "outputs": [
        {
          "components": [
            {
              "internalType": "address",
              "name": "user",
              "type": "address"
            },
            {
              "internalType": "uint256",
              "name": "auraAmount",
              "type": "uint256"
            },
            {
              "internalType": "uint256",
              "name": "ethAmount",
              "type": "uint256"
            },
            {
              "internalType": "string",
              "name": "transactionType",
              "type": "string"
            },
            {
              "internalType": "string",
              "name": "hackathonName",
              "type": "string"
            },
            {
              "internalType": "string",
              "name": "reason",
              "type": "string"
            },
            {
              "internalType": "uint256",
              "name": "timestamp",
              "type": "uint256"
            },
            {
              "internalType": "bytes32",
              "name": "txHash",
              "type": "bytes32"
            },
            {
              "internalType": "address",
              "name": "awardedBy",
              "type": "address"
            }
          ],
          "internalType": "struct HackathonRegistry.AuraTransaction[]",
          "name": "",
          "type": "tuple[]"
        }
      ],
      "stateMutability": "view",
      "type": "function"
    },
    {
      "inputs": [],
      "name": "getAuraStats",
      "outputs": [
        {
          "internalType": "uint256",
          "name": "totalInCirculation",
          "type": "uint256"
        },
        {
          "internalType": "uint256",
          "name": "totalEthRedeemed_",
          "type": "uint256"
        }
      ],
      "stateMutability": "view",
      "type": "function"
    },
    {
      "inputs": [],
      "name": "getAuraToEthRate",
      "outputs": [
        {
          "internalType": "uint256",
          "name": "",
          "type": "uint256"
        }
      ],
      "stateMutability": "pure",
      "type": "function"
    },
    {
      "inputs": [
        {
          "internalType": "address",
          "name": "_addr",
          "type": "address"
        }
      ],
      "name": "getParticipant",
      "outputs": [
        {
          "components": [
            {
              "internalType": "address",
              "name": "walletAddress",
              "type": "address"
            },
            {
              "internalType": "string",
              "name": "name",
              "type": "string"
            },
            {
              "internalType": "string",
              "name": "teamName",
              "type": "string"
            },
            {
              "internalType": "string",
              "name": "projectTitle",
              "type": "string"
            },
            {
              "internalType": "bool",
              "name": "isRegistered",
              "type": "bool"
            },
            {
              "internalType": "uint256",
              "name": "registrationTime",
              "type": "uint256"
            }
          ],
          "internalType": "struct HackathonRegistry.Participant",
          "name": "",
          "type": "tuple"
        }
      ],
      "stateMutability": "view",
      "type": "function"
    },
    {
      "inputs": [],
      "name": "getParticipantCount",
      "outputs": [
        {
          "internalType": "uint256",
          "name": "",
          "type": "uint256"
        }
      ],
      "stateMutability": "view",
      "type": "function"
    },
    {
      "inputs": [
        {
          "internalType": "address",
          "name": "",
          "type": "address"
        }
      ],
      "name": "hackathonHosts",
      "outputs": [
        {
          "internalType": "bool",
          "name": "",
          "type": "bool"
        }
      ],
      "stateMutability": "view",
      "type": "function"
    },
    {
      "inputs": [
        {
          "internalType": "address",
          "name": "_address",
          "type": "address"
        }
      ],
      "name": "isHackathonHost",
      "outputs": [
        {
          "internalType": "bool",
          "name": "",
          "type": "bool"
        }
      ],
      "stateMutability": "view",
      "type": "function"
    },
    {
      "inputs": [],
      "name": "owner",
      "outputs": [
        {
          "internalType": "address",
          "name": "",
          "type": "address"
        }
      ],
      "stateMutability": "view",
      "type": "function"
    },
    {
      "inputs": [
        {
          "internalType": "uint256",
          "name": "",
          "type": "uint256"
        }
      ],
      "name": "participantAddresses",
      "outputs": [
        {
          "internalType": "address",
          "name": "",
          "type": "address"
        }
      ],
      "stateMutability": "view",
      "type": "function"
    },
    {
      "inputs": [
        {
          "internalType": "address",
          "name": "",
          "type": "address"
        }
      ],
      "name": "participants",
      "outputs": [
        {
          "internalType": "address",
          "name": "walletAddress",
          "type": "address"
        },
        {
          "internalType": "string",
          "name": "name",
          "type": "string"
        },
        {
          "internalType": "string",
          "name": "teamName",
          "type": "string"
        },
        {
          "internalType": "string",
          "name": "projectTitle",
          "type": "string"
        },
        {
          "internalType": "bool",
          "name": "isRegistered",
          "type": "bool"
        },
        {
          "internalType": "uint256",
          "name": "registrationTime",
          "type": "uint256"
        }
      ],
      "stateMutability": "view",
      "type": "function"
    },
    {
      "inputs": [
        {
          "internalType": "uint256",
          "name": "_auraAmount",
          "type": "uint256"
        }
      ],
      "name": "redeemAuraForETH",
      "outputs": [],
      "stateMutability": "nonpayable",
      "type": "function"
    },
    {
      "inputs": [
        {
          "internalType": "string",
          "name": "_name",
          "type": "string"
        },
        {
          "internalType": "string",
          "name": "_teamName",
          "type": "string"
        },
        {
          "internalType": "string",
          "name": "_projectTitle",
          "type": "string"
        }
      ],
      "name": "registerParticipant",
      "outputs": [],
      "stateMutability": "nonpayable",
      "type": "function"
    },
    {
      "inputs": [],
      "name": "totalAuraInCirculation",
      "outputs": [
        {
          "internalType": "uint256",
          "name": "",
          "type": "uint256"
        }
      ],
      "stateMutability": "view",
      "type": "function"
    },
    {
      "inputs": [],
      "name": "totalEthRedeemed",
      "outputs": [
        {
          "internalType": "uint256",
          "name": "",
          "type": "uint256"
        }
      ],
      "stateMutability": "view",
      "type": "function"
    },
    {
      "inputs": [
        {
          "internalType": "address",
          "name": "",
          "type": "address"
        },
        {
          "internalType": "uint256",
          "name": "",
          "type": "uint256"
        }
      ],
      "name": "userAuraHistory",
      "outputs": [
        {
          "internalType": "address",
          "name": "user",
          "type": "address"
        },
        {
          "internalType": "uint256",
          "name": "auraAmount",
          "type": "uint256"
        },
        {
          "internalType": "uint256",
          "name": "ethAmount",
          "type": "uint256"
        },
        {
          "internalType": "string",
          "name": "transactionType",
          "type": "string"
        },
        {
          "internalType": "string",
          "name": "hackathonName",
          "type": "string"
        },
        {
          "internalType": "string",
          "name": "reason",
          "type": "string"
        },
        {
          "internalType": "uint256",
          "name": "timestamp",
          "type": "uint256"
        },
        {
          "internalType": "bytes32",
          "name": "txHash",
          "type": "bytes32"
        },
        {
          "internalType": "address",
          "name": "awardedBy",
          "type": "address"
        }
      ],
      "stateMutability": "view",
      "type": "function"
    },
    {
      "stateMutability": "payable",
      "type": "receive"
    }
  ],
  "bytecode": "0x608060405234801561001057600080fd5b5033600660006101000a81548173ffffffffffffffffffffffffffffffffffffffff021916908373ffffffffffffffffffffffffffffffffffffffff1602179055506001600360003373ffffffffffffffffffffffffffffffffffffffff1673ffffffffffffffffffffffffffffffffffffffff16815260200190815260200160002060006101000a81548160ff021916908315150217905550613c32806100b96000396000f3fe6080604052600436106101445760003560e01c8063838dae73116100b6578063b2d608c61161006f578063b2d608c614610497578063b4322907146104d6578063b60fff9014610501578063bd097e2114610546578063d0a553d714610550578063e59b6f921461058d5761014b565b8063838dae73146103825780638da5cb5b146103ad57806394de783a146103d85780639fbfba7714610415578063a9cfe31014610440578063ad6057291461046c5761014b565b80632bb7b340116101085780632bb7b3401461023857806344724d651461026157806344dbf25f146102a057806354ffbddb146102dd5780636fa0a5151461031a5780637143059f146103455761014b565b8063067110e71461015057806309e69ede1461017b5780630f3084de146101bd57806311bc3ffa146101e6578063243df1be1461020f5761014b565b3661014b57005b600080fd5b34801561015c57600080fd5b506101656105d2565b6040516101729190612898565b60405180910390f35b34801561018757600080fd5b506101a2600480360381019061019d9190612925565b6105d8565b6040516101b496959493929190612a0c565b60405180910390f35b3480156101c957600080fd5b506101e460048036038101906101df9190612be3565b6107d9565b005b3480156101f257600080fd5b5061020d60048036038101906102089190612c82565b610e0f565b005b34801561021b57600080fd5b5061023660048036038101906102319190612925565b611515565b005b34801561024457600080fd5b5061025f600480360381019061025a9190612caf565b611643565b005b34801561026d57600080fd5b5061028860048036038101906102839190612925565b6118c4565b60405161029793929190612d56565b60405180910390f35b3480156102ac57600080fd5b506102c760048036038101906102c29190612925565b611951565b6040516102d49190612d8d565b60405180910390f35b3480156102e957600080fd5b5061030460048036038101906102ff9190612c82565b6119a7565b6040516103119190612da8565b60405180910390f35b34801561032657600080fd5b5061032f6119e6565b60405161033c9190612fd9565b60405180910390f35b34801561035157600080fd5b5061036c60048036038101906103679190612925565b611cd0565b60405161037991906130a1565b60405180910390f35b34801561038e57600080fd5b50610397611f59565b6040516103a49190612898565b60405180910390f35b3480156103b957600080fd5b506103c2611f5f565b6040516103cf9190612da8565b60405180910390f35b3480156103e457600080fd5b506103ff60048036038101906103fa9190612925565b611f85565b60405161040c9190612fd9565b60405180910390f35b34801561042157600080fd5b5061042a6122ae565b6040516104379190612898565b60405180910390f35b34801561044c57600080fd5b506104556122b8565b6040516104639291906130c3565b60405180910390f35b34801561047857600080fd5b506104816122c9565b60405161048e9190612898565b60405180910390f35b3480156104a357600080fd5b506104be60048036038101906104b99190612925565b6122d6565b6040516104cd93929190612d56565b60405180910390f35b3480156104e257600080fd5b506104eb612300565b6040516104f89190612898565b60405180910390f35b34801561050d57600080fd5b50610528600480360381019061052391906130ec565b612306565b60405161053d9998979695949392919061313b565b60405180910390f35b61054e612549565b005b34801561055c57600080fd5b5061057760048036038101906105729190612925565b6125db565b6040516105849190612d8d565b60405180910390f35b34801561059957600080fd5b506105b460048036038101906105af9190612c82565b6125fb565b6040516105c99998979695949392919061313b565b60405180910390f35b60085481565b60006020528060005260406000206000915090508060000160009054906101000a900473ffffffffffffffffffffffffffffffffffffffff16908060010180546106219061320c565b80601f016020809104026020016040519081016040528092919081815260200182805461064d9061320c565b801561069a5780601f1061066f5761010080835404028352916020019161069a565b820191906000526020600020905b81548152906001019060200180831161067d57829003601f168201915b5050505050908060020180546106af9061320c565b80601f01602080910402602001604051908101604052809291908181526020018280546106db9061320c565b80156107285780601f106106fd57610100808354040283529160200191610728565b820191906000526020600020905b81548152906001019060200180831161070b57829003601f168201915b50505050509080600301805461073d9061320c565b80601f01602080910402602001604051908101604052809291908181526020018280546107699061320c565b80156107b65780601f1061078b576101008083540402835291602001916107b6565b820191906000526020600020905b81548152906001019060200180831161079957829003601f168201915b5050505050908060040160009054906101000a900460ff16908060050154905086565b600360003373ffffffffffffffffffffffffffffffffffffffff1673ffffffffffffffffffffffffffffffffffffffff16815260200190815260200160002060009054906101000a900460ff168061087e5750600660009054906101000a900473ffffffffffffffffffffffffffffffffffffffff1673ffffffffffffffffffffffffffffffffffffffff163373ffffffffffffffffffffffffffffffffffffffff16145b6108bd576040517f08c379a00000000000000000000000000000000000000000000000000000000081526004016108b4906132af565b60405180910390fd5b6000808573ffffffffffffffffffffffffffffffffffffffff1673ffffffffffffffffffffffffffffffffffffffff16815260200190815260200160002060040160009054906101000a900460ff1661094b576040517f08c379a00000000000000000000000000000000000000000000000000000000081526004016109429061331b565b60405180910390fd5b6000831161098e576040517f08c379a0000000000000000000000000000000000000000000000000000000008152600401610985906133ad565b60405180910390fd5b82600160008673ffffffffffffffffffffffffffffffffffffffff1673ffffffffffffffffffffffffffffffffffffffff16815260200190815260200160002060000160008282546109e091906133fc565b9250508190555082600160008673ffffffffffffffffffffffffffffffffffffffff1673ffffffffffffffffffffffffffffffffffffffff1681526020019081526020016000206001016000828254610a3991906133fc565b925050819055508260076000828254610a5291906133fc565b9250508190555060006040518061012001604052808673ffffffffffffffffffffffffffffffffffffffff168152602001858152602001600081526020016040518060400160405280600b81526020017f6561726e65645f617572610000000000000000000000000000000000000000008152508152602001848152602001838152602001428152602001864287604051602001610af293929190613499565b6040516020818303038152906040528051906020012081526020013373ffffffffffffffffffffffffffffffffffffffff168152509050600260008673ffffffffffffffffffffffffffffffffffffffff1673ffffffffffffffffffffffffffffffffffffffff16815260200190815260200160002081908060018154018082558091505060019003906000526020600020906009020160009091909190915060008201518160000160006101000a81548173ffffffffffffffffffffffffffffffffffffffff021916908373ffffffffffffffffffffffffffffffffffffffff16021790555060208201518160010155604082015181600201556060820151816003019081610c029190613682565b506080820151816004019081610c189190613682565b5060a0820151816005019081610c2e9190613682565b5060c0820151816006015560e082015181600701556101008201518160080160006101000a81548173ffffffffffffffffffffffffffffffffffffffff021916908373ffffffffffffffffffffffffffffffffffffffff1602179055505050600581908060018154018082558091505060019003906000526020600020906009020160009091909190915060008201518160000160006101000a81548173ffffffffffffffffffffffffffffffffffffffff021916908373ffffffffffffffffffffffffffffffffffffffff16021790555060208201518160010155604082015181600201556060820151816003019081610d299190613682565b506080820151816004019081610d3f9190613682565b5060a0820151816005019081610d559190613682565b5060c0820151816006015560e082015181600701556101008201518160080160006101000a81548173ffffffffffffffffffffffffffffffffffffffff021916908373ffffffffffffffffffffffffffffffffffffffff16021790555050508473ffffffffffffffffffffffffffffffffffffffff167fbbd09e1ceda6f2292ed485400d8ace7711b0a716144e03b4cf7f6ae60fb16e9d85858533604051610e009493929190613754565b60405180910390a25050505050565b6000803373ffffffffffffffffffffffffffffffffffffffff1673ffffffffffffffffffffffffffffffffffffffff16815260200190815260200160002060040160009054906101000a900460ff16610e9d576040517f08c379a0000000000000000000000000000000000000000000000000000000008152600401610e94906137f3565b60405180910390fd5b80600160003373ffffffffffffffffffffffffffffffffffffffff1673ffffffffffffffffffffffffffffffffffffffff168152602001908152602001600020600001541015610f22576040517f08c379a0000000000000000000000000000000000000000000000000000000008152600401610f199061385f565b60405180910390fd5b6103e8811015610f67576040517f08c379a0000000000000000000000000000000000000000000000000000000008152600401610f5e906138f1565b60405180910390fd5b60006103e8670de0b6b3a764000083610f809190613911565b610f8a9190613982565b905080471015610fcf576040517f08c379a0000000000000000000000000000000000000000000000000000000008152600401610fc690613a25565b60405180910390fd5b81600160003373ffffffffffffffffffffffffffffffffffffffff1673ffffffffffffffffffffffffffffffffffffffff16815260200190815260200160002060000160008282546110219190613a45565b9250508190555081600160003373ffffffffffffffffffffffffffffffffffffffff1673ffffffffffffffffffffffffffffffffffffffff168152602001908152602001600020600201600082825461107a91906133fc565b9250508190555081600760008282546110939190613a45565b9250508190555080600860008282546110ac91906133fc565b925050819055503373ffffffffffffffffffffffffffffffffffffffff166108fc829081150290604051600060405180830381858888f193505050501580156110f9573d6000803e3d6000fd5b5060006040518061012001604052803373ffffffffffffffffffffffffffffffffffffffff1681526020018481526020018381526020016040518060400160405280600c81526020017f72656465656d65645f657468000000000000000000000000000000000000000081525081526020016040518060400160405280600e81526020017f45544820526564656d7074696f6e00000000000000000000000000000000000081525081526020016040518060400160405280601581526020017f436f6e766572746564204155524120746f2045544800000000000000000000008152508152602001428152602001334286866040516020016111fe9493929190613a79565b6040516020818303038152906040528051906020012081526020013373ffffffffffffffffffffffffffffffffffffffff168152509050600260003373ffffffffffffffffffffffffffffffffffffffff1673ffffffffffffffffffffffffffffffffffffffff16815260200190815260200160002081908060018154018082558091505060019003906000526020600020906009020160009091909190915060008201518160000160006101000a81548173ffffffffffffffffffffffffffffffffffffffff021916908373ffffffffffffffffffffffffffffffffffffffff1602179055506020820151816001015560408201518160020155606082015181600301908161130e9190613682565b5060808201518160040190816113249190613682565b5060a082015181600501908161133a9190613682565b5060c0820151816006015560e082015181600701556101008201518160080160006101000a81548173ffffffffffffffffffffffffffffffffffffffff021916908373ffffffffffffffffffffffffffffffffffffffff1602179055505050600581908060018154018082558091505060019003906000526020600020906009020160009091909190915060008201518160000160006101000a81548173ffffffffffffffffffffffffffffffffffffffff021916908373ffffffffffffffffffffffffffffffffffffffff160217905550602082015181600101556040820151816002015560608201518160030190816114359190613682565b50608082015181600401908161144b9190613682565b5060a08201518160050190816114619190613682565b5060c0820151816006015560e082015181600701556101008201518160080160006101000a81548173ffffffffffffffffffffffffffffffffffffffff021916908373ffffffffffffffffffffffffffffffffffffffff16021790555050503373ffffffffffffffffffffffffffffffffffffffff167fa85ad97b0d6a556b62203364a1ebaa95d920dec3ce78c8ec9e3df6e5d8f8a84284846040516115089291906130c3565b60405180910390a2505050565b600660009054906101000a900473ffffffffffffffffffffffffffffffffffffffff1673ffffffffffffffffffffffffffffffffffffffff163373ffffffffffffffffffffffffffffffffffffffff16146115a5576040517f08c379a000000000000000000000000000000000000000000000000000000000815260040161159c90613b39565b60405180910390fd5b6001600360008373ffffffffffffffffffffffffffffffffffffffff1673ffffffffffffffffffffffffffffffffffffffff16815260200190815260200160002060006101000a81548160ff0219169083151502179055508073ffffffffffffffffffffffffffffffffffffffff167f741ce41165f0f5ab661bb5d7077c841113d288d8609757ad6f9bed0d82e1b8a760405160405180910390a250565b6000803373ffffffffffffffffffffffffffffffffffffffff1673ffffffffffffffffffffffffffffffffffffffff16815260200190815260200160002060040160009054906101000a900460ff16156116d2576040517f08c379a00000000000000000000000000000000000000000000000000000000081526004016116c990613ba5565b60405180910390fd5b6040518060c001604052803373ffffffffffffffffffffffffffffffffffffffff168152602001848152602001838152602001828152602001600115158152602001428152506000803373ffffffffffffffffffffffffffffffffffffffff1673ffffffffffffffffffffffffffffffffffffffff16815260200190815260200160002060008201518160000160006101000a81548173ffffffffffffffffffffffffffffffffffffffff021916908373ffffffffffffffffffffffffffffffffffffffff16021790555060208201518160010190816117b29190613682565b5060408201518160020190816117c89190613682565b5060608201518160030190816117de9190613682565b5060808201518160040160006101000a81548160ff02191690831515021790555060a082015181600501559050506004339080600181540180825580915050600190039060005260206000200160009091909190916101000a81548173ffffffffffffffffffffffffffffffffffffffff021916908373ffffffffffffffffffffffffffffffffffffffff1602179055503373ffffffffffffffffffffffffffffffffffffffff167f09f6343983a89cd9ef42910b46255d2371f6d6a76f4f526c92ffac9dbc17ba1184846040516118b7929190613bc5565b60405180910390a2505050565b600080600080600160008673ffffffffffffffffffffffffffffffffffffffff1673ffffffffffffffffffffffffffffffffffffffff16815260200190815260200160002060405180606001604052908160008201548152602001600182015481526020016002820154815250509050806000015181602001518260400151935093509350509193909250565b6000600360008373ffffffffffffffffffffffffffffffffffffffff1673ffffffffffffffffffffffffffffffffffffffff16815260200190815260200160002060009054906101000a900460ff169050919050565b600481815481106119b757600080fd5b906000526020600020016000915054906101000a900473ffffffffffffffffffffffffffffffffffffffff1681565b60606005805480602002602001604051908101604052809291908181526020016000905b82821015611cc75783829060005260206000209060090201604051806101200160405290816000820160009054906101000a900473ffffffffffffffffffffffffffffffffffffffff1673ffffffffffffffffffffffffffffffffffffffff1673ffffffffffffffffffffffffffffffffffffffff1681526020016001820154815260200160028201548152602001600382018054611aa89061320c565b80601f0160208091040260200160405190810160405280929190818152602001828054611ad49061320c565b8015611b215780601f10611af657610100808354040283529160200191611b21565b820191906000526020600020905b815481529060010190602001808311611b0457829003601f168201915b50505050508152602001600482018054611b3a9061320c565b80601f0160208091040260200160405190810160405280929190818152602001828054611b669061320c565b8015611bb35780601f10611b8857610100808354040283529160200191611bb3565b820191906000526020600020905b815481529060010190602001808311611b9657829003601f168201915b50505050508152602001600582018054611bcc9061320c565b80601f0160208091040260200160405190810160405280929190818152602001828054611bf89061320c565b8015611c455780601f10611c1a57610100808354040283529160200191611c45565b820191906000526020600020905b815481529060010190602001808311611c2857829003601f168201915b5050505050815260200160068201548152602001600782015481526020016008820160009054906101000a900473ffffffffffffffffffffffffffffffffffffffff1673ffffffffffffffffffffffffffffffffffffffff1673ffffffffffffffffffffffffffffffffffffffff168152505081526020019060010190611a0a565b50505050905090565b611cd8612831565b6000808373ffffffffffffffffffffffffffffffffffffffff1673ffffffffffffffffffffffffffffffffffffffff1681526020019081526020016000206040518060c00160405290816000820160009054906101000a900473ffffffffffffffffffffffffffffffffffffffff1673ffffffffffffffffffffffffffffffffffffffff1673ffffffffffffffffffffffffffffffffffffffff168152602001600182018054611d879061320c565b80601f0160208091040260200160405190810160405280929190818152602001828054611db39061320c565b8015611e005780601f10611dd557610100808354040283529160200191611e00565b820191906000526020600020905b815481529060010190602001808311611de357829003601f168201915b50505050508152602001600282018054611e199061320c565b80601f0160208091040260200160405190810160405280929190818152602001828054611e459061320c565b8015611e925780601f10611e6757610100808354040283529160200191611e92565b820191906000526020600020905b815481529060010190602001808311611e7557829003601f168201915b50505050508152602001600382018054611eab9061320c565b80601f0160208091040260200160405190810160405280929190818152602001828054611ed79061320c565b8015611f245780601f10611ef957610100808354040283529160200191611f24565b820191906000526020600020905b815481529060010190602001808311611f0757829003601f168201915b505050505081526020016004820160009054906101000a900460ff161515151581526020016005820154815250509050919050565b60075481565b600660009054906101000a900473ffffffffffffffffffffffffffffffffffffffff1681565b6060600260008373ffffffffffffffffffffffffffffffffffffffff1673ffffffffffffffffffffffffffffffffffffffff168152602001908152602001600020805480602002602001604051908101604052809291908181526020016000905b828210156122a35783829060005260206000209060090201604051806101200160405290816000820160009054906101000a900473ffffffffffffffffffffffffffffffffffffffff1673ffffffffffffffffffffffffffffffffffffffff1673ffffffffffffffffffffffffffffffffffffffff16815260200160018201548152602001600282015481526020016003820180546120849061320c565b80601f01602080910402602001604051908101604052809291908181526020018280546120b09061320c565b80156120fd5780601f106120d2576101008083540402835291602001916120fd565b820191906000526020600020905b8154815290600101906020018083116120e057829003601f168201915b505050505081526020016004820180546121169061320c565b80601f01602080910402602001604051908101604052809291908181526020018280546121429061320c565b801561218f5780601f106121645761010080835404028352916020019161218f565b820191906000526020600020905b81548152906001019060200180831161217257829003601f168201915b505050505081526020016005820180546121a89061320c565b80601f01602080910402602001604051908101604052809291908181526020018280546121d49061320c565b80156122215780601f106121f657610100808354040283529160200191612221565b820191906000526020600020905b81548152906001019060200180831161220457829003601f168201915b5050505050815260200160068201548152602001600782015481526020016008820160009054906101000a900473ffffffffffffffffffffffffffffffffffffffff1673ffffffffffffffffffffffffffffffffffffffff1673ffffffffffffffffffffffffffffffffffffffff168152505081526020019060010190611fe6565b505050509050919050565b60006103e8905090565b600080600754600854915091509091565b6000600480549050905090565b60016020528060005260406000206000915090508060000154908060010154908060020154905083565b6103e881565b6002602052816000526040600020818154811061232257600080fd5b9060005260206000209060090201600091509150508060000160009054906101000a900473ffffffffffffffffffffffffffffffffffffffff16908060010154908060020154908060030180546123789061320c565b80601f01602080910402602001604051908101604052809291908181526020018280546123a49061320c565b80156123f15780601f106123c6576101008083540402835291602001916123f1565b820191906000526020600020905b8154815290600101906020018083116123d457829003601f168201915b5050505050908060040180546124069061320c565b80601f01602080910402602001604051908101604052809291908181526020018280546124329061320c565b801561247f5780601f106124545761010080835404028352916020019161247f565b820191906000526020600020905b81548152906001019060200180831161246257829003601f168201915b5050505050908060050180546124949061320c565b80601f01602080910402602001604051908101604052809291908181526020018280546124c09061320c565b801561250d5780601f106124e25761010080835404028352916020019161250d565b820191906000526020600020905b8154815290600101906020018083116124f057829003601f168201915b5050505050908060060154908060070154908060080160009054906101000a900473ffffffffffffffffffffffffffffffffffffffff16905089565b600660009054906101000a900473ffffffffffffffffffffffffffffffffffffffff1673ffffffffffffffffffffffffffffffffffffffff163373ffffffffffffffffffffffffffffffffffffffff16146125d9576040517f08c379a00000000000000000000000000000000000000000000000000000000081526004016125d090613b39565b60405180910390fd5b565b60036020528060005260406000206000915054906101000a900460ff1681565b6005818154811061260b57600080fd5b90600052602060002090600902016000915090508060000160009054906101000a900473ffffffffffffffffffffffffffffffffffffffff16908060010154908060020154908060030180546126609061320c565b80601f016020809104026020016040519081016040528092919081815260200182805461268c9061320c565b80156126d95780601f106126ae576101008083540402835291602001916126d9565b820191906000526020600020905b8154815290600101906020018083116126bc57829003601f168201915b5050505050908060040180546126ee9061320c565b80601f016020809104026020016040519081016040528092919081815260200182805461271a9061320c565b80156127675780601f1061273c57610100808354040283529160200191612767565b820191906000526020600020905b81548152906001019060200180831161274a57829003601f168201915b50505050509080600501805461277c9061320c565b80601f01602080910402602001604051908101604052809291908181526020018280546127a89061320c565b80156127f55780601f106127ca576101008083540402835291602001916127f5565b820191906000526020600020905b8154815290600101906020018083116127d857829003601f168201915b5050505050908060060154908060070154908060080160009054906101000a900473ffffffffffffffffffffffffffffffffffffffff16905089565b6040518060c00160405280600073ffffffffffffffffffffffffffffffffffffffff168152602001606081526020016060815260200160608152602001600015158152602001600081525090565b6000819050919050565b6128928161287f565b82525050565b60006020820190506128ad6000830184612889565b92915050565b6000604051905090565b600080fd5b600080fd5b600073ffffffffffffffffffffffffffffffffffffffff82169050919050565b60006128f2826128c7565b9050919050565b612902816128e7565b811461290d57600080fd5b50565b60008135905061291f816128f9565b92915050565b60006020828403121561293b5761293a6128bd565b5b600061294984828501612910565b91505092915050565b61295b816128e7565b82525050565b600081519050919050565b600082825260208201905092915050565b60005b8381101561299b578082015181840152602081019050612980565b60008484015250505050565b6000601f19601f8301169050919050565b60006129c382612961565b6129cd818561296c565b93506129dd81856020860161297d565b6129e6816129a7565b840191505092915050565b60008115159050919050565b612a06816129f1565b82525050565b600060c082019050612a216000830189612952565b8181036020830152612a3381886129b8565b90508181036040830152612a4781876129b8565b90508181036060830152612a5b81866129b8565b9050612a6a60808301856129fd565b612a7760a0830184612889565b979650505050505050565b612a8b8161287f565b8114612a9657600080fd5b50565b600081359050612aa881612a82565b92915050565b600080fd5b600080fd5b7f4e487b7100000000000000000000000000000000000000000000000000000000600052604160045260246000fd5b612af0826129a7565b810181811067ffffffffffffffff82111715612b0f57612b0e612ab8565b5b80604052505050565b6000612b226128b3565b9050612b2e8282612ae7565b919050565b600067ffffffffffffffff821115612b4e57612b4d612ab8565b5b612b57826129a7565b9050602081019050919050565b82818337600083830152505050565b6000612b86612b8184612b33565b612b18565b905082815260208101848484011115612ba257612ba1612ab3565b5b612bad848285612b64565b509392505050565b600082601f830112612bca57612bc9612aae565b5b8135612bda848260208601612b73565b91505092915050565b60008060008060808587031215612bfd57612bfc6128bd565b5b6000612c0b87828801612910565b9450506020612c1c87828801612a99565b935050604085013567ffffffffffffffff811115612c3d57612c3c6128c2565b5b612c4987828801612bb5565b925050606085013567ffffffffffffffff811115612c6a57612c696128c2565b5b612c7687828801612bb5565b91505092959194509250565b600060208284031215612c9857612c976128bd565b5b6000612ca684828501612a99565b91505092915050565b600080600060608486031215612cc857612cc76128bd565b5b600084013567ffffffffffffffff811115612ce657612ce56128c2565b5b612cf286828701612bb5565b935050602084013567ffffffffffffffff811115612d1357612d126128c2565b5b612d1f86828701612bb5565b925050604084013567ffffffffffffffff811115612d4057612d3f6128c2565b5b612d4c86828701612bb5565b9150509250925092565b6000606082019050612d6b6000830186612889565b612d786020830185612889565b612d856040830184612889565b949350505050565b6000602082019050612da260008301846129fd565b92915050565b6000602082019050612dbd6000830184612952565b92915050565b600081519050919050565b600082825260208201905092915050565b6000819050602082019050919050565b612df8816128e7565b82525050565b612e078161287f565b82525050565b600082825260208201905092915050565b6000612e2982612961565b612e338185612e0d565b9350612e4381856020860161297d565b612e4c816129a7565b840191505092915050565b6000819050919050565b612e6a81612e57565b82525050565b600061012083016000830151612e896000860182612def565b506020830151612e9c6020860182612dfe565b506040830151612eaf6040860182612dfe565b5060608301518482036060860152612ec78282612e1e565b91505060808301518482036080860152612ee18282612e1e565b91505060a083015184820360a0860152612efb8282612e1e565b91505060c0830151612f1060c0860182612dfe565b5060e0830151612f2360e0860182612e61565b50610100830151612f38610100860182612def565b508091505092915050565b6000612f4f8383612e70565b905092915050565b6000602082019050919050565b6000612f6f82612dc3565b612f798185612dce565b935083602082028501612f8b85612ddf565b8060005b85811015612fc75784840389528151612fa88582612f43565b9450612fb383612f57565b925060208a01995050600181019050612f8f565b50829750879550505050505092915050565b60006020820190508181036000830152612ff38184612f64565b905092915050565b613004816129f1565b82525050565b600060c0830160008301516130226000860182612def565b506020830151848203602086015261303a8282612e1e565b915050604083015184820360408601526130548282612e1e565b9150506060830151848203606086015261306e8282612e1e565b91505060808301516130836080860182612ffb565b5060a083015161309660a0860182612dfe565b508091505092915050565b600060208201905081810360008301526130bb818461300a565b905092915050565b60006040820190506130d86000830185612889565b6130e56020830184612889565b9392505050565b60008060408385031215613103576131026128bd565b5b600061311185828601612910565b925050602061312285828601612a99565b9150509250929050565b61313581612e57565b82525050565b600061012082019050613151600083018c612952565b61315e602083018b612889565b61316b604083018a612889565b818103606083015261317d81896129b8565b9050818103608083015261319181886129b8565b905081810360a08301526131a581876129b8565b90506131b460c0830186612889565b6131c160e083018561312c565b6131cf610100830184612952565b9a9950505050505050505050565b7f4e487b7100000000000000000000000000000000000000000000000000000000600052602260045260246000fd5b6000600282049050600182168061322457607f821691505b602082108103613237576132366131dd565b5b50919050565b7f4f6e6c79206861636b6174686f6e20686f7374732063616e206177617264204160008201527f5552410000000000000000000000000000000000000000000000000000000000602082015250565b600061329960238361296c565b91506132a48261323d565b604082019050919050565b600060208201905081810360008301526132c88161328c565b9050919050565b7f5061727469636970616e74206e6f742072656769737465726564000000000000600082015250565b6000613305601a8361296c565b9150613310826132cf565b602082019050919050565b60006020820190508181036000830152613334816132f8565b9050919050565b7f4155524120616d6f756e74206d7573742062652067726561746572207468616e60008201527f2030000000000000000000000000000000000000000000000000000000000000602082015250565b600061339760228361296c565b91506133a28261333b565b604082019050919050565b600060208201905081810360008301526133c68161338a565b9050919050565b7f4e487b7100000000000000000000000000000000000000000000000000000000600052601160045260246000fd5b60006134078261287f565b91506134128361287f565b925082820190508082111561342a576134296133cd565b5b92915050565b60008160601b9050919050565b600061344882613430565b9050919050565b600061345a8261343d565b9050919050565b61347261346d826128e7565b61344f565b82525050565b6000819050919050565b61349361348e8261287f565b613478565b82525050565b60006134a58286613461565b6014820191506134b58285613482565b6020820191506134c58284613482565b602082019150819050949350505050565b60008190508160005260206000209050919050565b60006020601f8301049050919050565b600082821b905092915050565b6000600883026135387fffffffffffffffffffffffffffffffffffffffffffffffffffffffffffffffff826134fb565b61354286836134fb565b95508019841693508086168417925050509392505050565b6000819050919050565b600061357f61357a6135758461287f565b61355a565b61287f565b9050919050565b6000819050919050565b61359983613564565b6135ad6135a582613586565b848454613508565b825550505050565b600090565b6135c26135b5565b6135cd818484613590565b505050565b5b818110156135f1576135e66000826135ba565b6001810190506135d3565b5050565b601f82111561363657613607816134d6565b613610846134eb565b8101602085101561361f578190505b61363361362b856134eb565b8301826135d2565b50505b505050565b600082821c905092915050565b60006136596000198460080261363b565b1980831691505092915050565b60006136728383613648565b9150826002028217905092915050565b61368b82612961565b67ffffffffffffffff8111156136a4576136a3612ab8565b5b6136ae825461320c565b6136b98282856135f5565b600060209050601f8311600181146136ec57600084156136da578287015190505b6136e48582613666565b86555061374c565b601f1984166136fa866134d6565b60005b82811015613722578489015182556001820191506020850194506020810190506136fd565b8683101561373f578489015161373b601f891682613648565b8355505b6001600288020188555050505b505050505050565b60006080820190506137696000830187612889565b818103602083015261377b81866129b8565b9050818103604083015261378f81856129b8565b905061379e6060830184612952565b95945050505050565b7f4e6f742072656769737465726564000000000000000000000000000000000000600082015250565b60006137dd600e8361296c565b91506137e8826137a7565b602082019050919050565b6000602082019050818103600083015261380c816137d0565b9050919050565b7f496e73756666696369656e7420415552412062616c616e636500000000000000600082015250565b600061384960198361296c565b915061385482613813565b602082019050919050565b600060208201905081810360008301526138788161383c565b9050919050565b7f4d696e696d756d2031303030204155524120726571756972656420666f72207260008201527f6564656d7074696f6e0000000000000000000000000000000000000000000000602082015250565b60006138db60298361296c565b91506138e68261387f565b604082019050919050565b6000602082019050818103600083015261390a816138ce565b9050919050565b600061391c8261287f565b91506139278361287f565b92508282026139358161287f565b9150828204841483151761394c5761394b6133cd565b5b5092915050565b7f4e487b7100000000000000000000000000000000000000000000000000000000600052601260045260246000fd5b600061398d8261287f565b91506139988361287f565b9250826139a8576139a7613953565b5b828204905092915050565b7f496e73756666696369656e7420636f6e7472616374204554482062616c616e6360008201527f6500000000000000000000000000000000000000000000000000000000000000602082015250565b6000613a0f60218361296c565b9150613a1a826139b3565b604082019050919050565b60006020820190508181036000830152613a3e81613a02565b9050919050565b6000613a508261287f565b9150613a5b8361287f565b9250828203905081811115613a7357613a726133cd565b5b92915050565b6000613a858287613461565b601482019150613a958286613482565b602082019150613aa58285613482565b602082019150613ab58284613482565b60208201915081905095945050505050565b7f4f6e6c79206f776e65722063616e2063616c6c20746869732066756e6374696f60008201527f6e00000000000000000000000000000000000000000000000000000000000000602082015250565b6000613b2360218361296c565b9150613b2e82613ac7565b604082019050919050565b60006020820190508181036000830152613b5281613b16565b9050919050565b7f416c726561647920726567697374657265640000000000000000000000000000600082015250565b6000613b8f60128361296c565b9150613b9a82613b59565b602082019050919050565b60006020820190508181036000830152613bbe81613b82565b9050919050565b60006040820190508181036000830152613bdf81856129b8565b90508181036020830152613bf381846129b8565b9050939250505056fea2646970667358221220f416c611d5a60a60df47df86908b25c6f4ace7e1b354366af42d4b4f69e94b9064736f6c63430008130033",
  "linkReferences": {},
  "deployedLinkReferences": {}
}